{
  "contractName": "Election",
  "abi": [
    {
      "inputs": [],
      "stateMutability": "nonpayable",
      "type": "constructor"
    },
    {
      "inputs": [
        {
          "internalType": "uint256",
          "name": "",
          "type": "uint256"
        }
      ],
      "name": "candidates",
      "outputs": [
        {
          "internalType": "uint256",
          "name": "id",
          "type": "uint256"
        },
        {
          "internalType": "string",
          "name": "name",
          "type": "string"
        },
        {
          "internalType": "uint256",
          "name": "voteCount",
          "type": "uint256"
        }
      ],
      "stateMutability": "view",
      "type": "function",
      "constant": true
    },
    {
      "inputs": [],
      "name": "candidatesCount",
      "outputs": [
        {
          "internalType": "uint256",
          "name": "",
          "type": "uint256"
        }
      ],
      "stateMutability": "view",
      "type": "function",
      "constant": true
    },
    {
      "inputs": [
        {
          "internalType": "uint256",
          "name": "_id",
          "type": "uint256"
        }
      ],
      "name": "vote",
      "outputs": [],
      "stateMutability": "nonpayable",
      "type": "function"
    }
  ],
  "bytecode": "0x608060405234801561001057600080fd5b506100556040518060400160405280600b81526020017f4461696b692046756a696900000000000000000000000000000000000000000081525061009e60201b60201c565b6100996040518060400160405280601281526020017f526f6b75726f756d616e204d697473756b69000000000000000000000000000081525061009e60201b60201c565b6102a5565b600160008154809291906100b1906101fe565b9190505550604051806060016040528060015481526020018281526020016000815250600080600154815260200190815260200160002060008201518160000155602082015181600101908051906020019061010e92919061011f565b506040820151816002015590505050565b82805461012b906101cc565b90600052602060002090601f01602090048101928261014d5760008555610194565b82601f1061016657805160ff1916838001178555610194565b82800160010185558215610194579182015b82811115610193578251825591602001919060010190610178565b5b5090506101a191906101a5565b5090565b5b808211156101be5760008160009055506001016101a6565b5090565b6000819050919050565b600060028204905060018216806101e457607f821691505b602082108114156101f8576101f7610276565b5b50919050565b6000610209826101c2565b91507fffffffffffffffffffffffffffffffffffffffffffffffffffffffffffffffff82141561023c5761023b610247565b5b600182019050919050565b7f4e487b7100000000000000000000000000000000000000000000000000000000600052601160045260246000fd5b7f4e487b7100000000000000000000000000000000000000000000000000000000600052602260045260246000fd5b610407806102b46000396000f3fe608060405234801561001057600080fd5b50600436106100415760003560e01c80630121b93f146100465780632d35a8a2146100625780633477ee2e14610080575b600080fd5b610060600480360381019061005b91906101ad565b6100b2565b005b61006a6100e0565b604051610077919061021e565b60405180910390f35b61009a600480360381019061009591906101ad565b6100e6565b6040516100a993929190610239565b60405180910390f35b60008082815260200190815260200160002060020160008154809291906100d890610302565b919050555050565b60015481565b600060205280600052604060002060009150905080600001549080600101805461010f906102d0565b80601f016020809104026020016040519081016040528092919081815260200182805461013b906102d0565b80156101885780601f1061015d57610100808354040283529160200191610188565b820191906000526020600020905b81548152906001019060200180831161016b57829003601f168201915b5050505050908060020154905083565b6000813590506101a7816103ba565b92915050565b6000602082840312156101bf57600080fd5b60006101cd84828501610198565b91505092915050565b60006101e182610277565b6101eb8185610282565b93506101fb81856020860161029d565b610204816103a9565b840191505092915050565b61021881610293565b82525050565b6000602082019050610233600083018461020f565b92915050565b600060608201905061024e600083018661020f565b818103602083015261026081856101d6565b905061026f604083018461020f565b949350505050565b600081519050919050565b600082825260208201905092915050565b6000819050919050565b60005b838110156102bb5780820151818401526020810190506102a0565b838111156102ca576000848401525b50505050565b600060028204905060018216806102e857607f821691505b602082108114156102fc576102fb61037a565b5b50919050565b600061030d82610293565b91507fffffffffffffffffffffffffffffffffffffffffffffffffffffffffffffffff8214156103405761033f61034b565b5b600182019050919050565b7f4e487b7100000000000000000000000000000000000000000000000000000000600052601160045260246000fd5b7f4e487b7100000000000000000000000000000000000000000000000000000000600052602260045260246000fd5b6000601f19601f8301169050919050565b6103c381610293565b81146103ce57600080fd5b5056fea2646970667358221220269cc8d636af530ad08aba1d5e155d89cd226c67001ff5093c8ed7db75bf8df564736f6c63430008030033",
  "immutableReferences": {},
  "source": "// SPDX-License-Identifier: MIT\npragma solidity ^0.8.3;\n\ncontract Election {\n    constructor() {\n        addCandidate(\"Daiki Fujii\");\n        addCandidate(\"Rokurouman Mitsuki\");\n    }\n\n    struct Candidate {\n        uint256 id;\n        string name;\n        uint256 voteCount;\n    }\n\n    mapping(uint256 => Candidate) public candidates;\n\n    uint256 public candidatesCount;\n\n    function addCandidate(string memory _name) private {\n        candidatesCount++;\n        candidates[candidatesCount] = Candidate(candidatesCount, _name, 0);\n    }\n\n    function vote(uint256 _id) public {\n        candidates[_id].voteCount++;\n    }\n}\n",
  "sourcePath": "/Users/fujiidaiki/Git/truffle-election/contracts/Election.sol",
  "compiler": {
    "name": "solc",
    "version": "0.8.3+commit.8d00100c.Emscripten.clang"
  },
  "schemaVersion": "3.3.4",
  "updatedAt": "2021-04-11T09:27:16.469Z",
  "networkType": "ethereum",
  "devdoc": {
    "kind": "dev",
    "methods": {},
    "version": 1
  },
  "userdoc": {
    "kind": "user",
    "methods": {},
    "version": 1
  }
}